{
  "contractName": "NGToken",
  "abi": [
    {
      "constant": true,
      "inputs": [],
      "name": "totalSupply",
      "outputs": [
        {
          "name": "",
          "type": "uint256"
        }
      ],
      "payable": false,
      "stateMutability": "view",
      "type": "function",
      "signature": "0x18160ddd"
    },
    {
      "inputs": [],
      "payable": false,
      "stateMutability": "nonpayable",
      "type": "constructor",
      "signature": "constructor"
    }
  ],
  "bytecode": "0x608060405234801561001057600080fd5b50620f4240600081905550609e806100296000396000f3fe608060405260043610603f576000357c0100000000000000000000000000000000000000000000000000000000900463ffffffff16806318160ddd146044575b600080fd5b348015604f57600080fd5b506056606c565b6040518082815260200191505060405180910390f35b6000548156fea165627a7a723058206ac5efb246e013c53eb3bfb33827e6dd6fddf13ba53bc0c54001856cc1b18a150029",
  "source": "pragma solidity ^0.5.0;\r\n\r\ncontract NGToken {\r\n    \r\n    uint256 public totalSupply;\r\n\r\n    constructor() public {\r\n        totalSupply = 1000000;\r\n    }\r\n}",
  "sourcePath": "D:/NITASHA GUPTA/Documents/Github/eth-tokan-sale/contracts/NGToken.sol",
  "compiler": {
    "name": "solc",
    "version": "0.5.0+commit.1d4f565a.Emscripten.clang"
  },
  "schemaVersion": "3.0.1",
  "updatedAt": "2020-07-19T11:44:15.715Z",
  "devdoc": {
    "methods": {}
  },
  "userdoc": {
    "methods": {}
  }
}